{
  "contractName": "NftMarket",
  "abi": [
    {
      "inputs": [],
      "stateMutability": "nonpayable",
      "type": "constructor"
    },
    {
      "anonymous": false,
      "inputs": [
        {
          "indexed": true,
          "internalType": "address",
          "name": "owner",
          "type": "address"
        },
        {
          "indexed": true,
          "internalType": "address",
          "name": "approved",
          "type": "address"
        },
        {
          "indexed": true,
          "internalType": "uint256",
          "name": "tokenId",
          "type": "uint256"
        }
      ],
      "name": "Approval",
      "type": "event"
    },
    {
      "anonymous": false,
      "inputs": [
        {
          "indexed": true,
          "internalType": "address",
          "name": "owner",
          "type": "address"
        },
        {
          "indexed": true,
          "internalType": "address",
          "name": "operator",
          "type": "address"
        },
        {
          "indexed": false,
          "internalType": "bool",
          "name": "approved",
          "type": "bool"
        }
      ],
      "name": "ApprovalForAll",
      "type": "event"
    },
    {
      "anonymous": false,
      "inputs": [
        {
          "indexed": false,
          "internalType": "uint256",
          "name": "tokenId",
          "type": "uint256"
        },
        {
          "indexed": false,
          "internalType": "uint256",
          "name": "price",
          "type": "uint256"
        },
        {
          "indexed": false,
          "internalType": "address",
          "name": "creator",
          "type": "address"
        },
        {
          "indexed": false,
          "internalType": "bool",
          "name": "isListed",
          "type": "bool"
        }
      ],
      "name": "NftItemCreated",
      "type": "event"
    },
    {
      "anonymous": false,
      "inputs": [
        {
          "indexed": true,
          "internalType": "address",
          "name": "previousOwner",
          "type": "address"
        },
        {
          "indexed": true,
          "internalType": "address",
          "name": "newOwner",
          "type": "address"
        }
      ],
      "name": "OwnershipTransferred",
      "type": "event"
    },
    {
      "anonymous": false,
      "inputs": [
        {
          "indexed": true,
          "internalType": "address",
          "name": "from",
          "type": "address"
        },
        {
          "indexed": true,
          "internalType": "address",
          "name": "to",
          "type": "address"
        },
        {
          "indexed": true,
          "internalType": "uint256",
          "name": "tokenId",
          "type": "uint256"
        }
      ],
      "name": "Transfer",
      "type": "event"
    },
    {
      "inputs": [
        {
          "internalType": "address",
          "name": "to",
          "type": "address"
        },
        {
          "internalType": "uint256",
          "name": "tokenId",
          "type": "uint256"
        }
      ],
      "name": "approve",
      "outputs": [],
      "stateMutability": "nonpayable",
      "type": "function"
    },
    {
      "inputs": [
        {
          "internalType": "address",
          "name": "owner",
          "type": "address"
        }
      ],
      "name": "balanceOf",
      "outputs": [
        {
          "internalType": "uint256",
          "name": "",
          "type": "uint256"
        }
      ],
      "stateMutability": "view",
      "type": "function",
      "constant": true
    },
    {
      "inputs": [
        {
          "internalType": "uint256",
          "name": "tokenId",
          "type": "uint256"
        }
      ],
      "name": "getApproved",
      "outputs": [
        {
          "internalType": "address",
          "name": "",
          "type": "address"
        }
      ],
      "stateMutability": "view",
      "type": "function",
      "constant": true
    },
    {
      "inputs": [
        {
          "internalType": "address",
          "name": "owner",
          "type": "address"
        },
        {
          "internalType": "address",
          "name": "operator",
          "type": "address"
        }
      ],
      "name": "isApprovedForAll",
      "outputs": [
        {
          "internalType": "bool",
          "name": "",
          "type": "bool"
        }
      ],
      "stateMutability": "view",
      "type": "function",
      "constant": true
    },
    {
      "inputs": [],
      "name": "listingPrice",
      "outputs": [
        {
          "internalType": "uint256",
          "name": "",
          "type": "uint256"
        }
      ],
      "stateMutability": "view",
      "type": "function",
      "constant": true
    },
    {
      "inputs": [],
      "name": "name",
      "outputs": [
        {
          "internalType": "string",
          "name": "",
          "type": "string"
        }
      ],
      "stateMutability": "view",
      "type": "function",
      "constant": true
    },
    {
      "inputs": [],
      "name": "owner",
      "outputs": [
        {
          "internalType": "address",
          "name": "",
          "type": "address"
        }
      ],
      "stateMutability": "view",
      "type": "function",
      "constant": true
    },
    {
      "inputs": [
        {
          "internalType": "uint256",
          "name": "tokenId",
          "type": "uint256"
        }
      ],
      "name": "ownerOf",
      "outputs": [
        {
          "internalType": "address",
          "name": "",
          "type": "address"
        }
      ],
      "stateMutability": "view",
      "type": "function",
      "constant": true
    },
    {
      "inputs": [],
      "name": "renounceOwnership",
      "outputs": [],
      "stateMutability": "nonpayable",
      "type": "function"
    },
    {
      "inputs": [
        {
          "internalType": "address",
          "name": "from",
          "type": "address"
        },
        {
          "internalType": "address",
          "name": "to",
          "type": "address"
        },
        {
          "internalType": "uint256",
          "name": "tokenId",
          "type": "uint256"
        }
      ],
      "name": "safeTransferFrom",
      "outputs": [],
      "stateMutability": "nonpayable",
      "type": "function"
    },
    {
      "inputs": [
        {
          "internalType": "address",
          "name": "from",
          "type": "address"
        },
        {
          "internalType": "address",
          "name": "to",
          "type": "address"
        },
        {
          "internalType": "uint256",
          "name": "tokenId",
          "type": "uint256"
        },
        {
          "internalType": "bytes",
          "name": "_data",
          "type": "bytes"
        }
      ],
      "name": "safeTransferFrom",
      "outputs": [],
      "stateMutability": "nonpayable",
      "type": "function"
    },
    {
      "inputs": [
        {
          "internalType": "address",
          "name": "operator",
          "type": "address"
        },
        {
          "internalType": "bool",
          "name": "approved",
          "type": "bool"
        }
      ],
      "name": "setApprovalForAll",
      "outputs": [],
      "stateMutability": "nonpayable",
      "type": "function"
    },
    {
      "inputs": [
        {
          "internalType": "bytes4",
          "name": "interfaceId",
          "type": "bytes4"
        }
      ],
      "name": "supportsInterface",
      "outputs": [
        {
          "internalType": "bool",
          "name": "",
          "type": "bool"
        }
      ],
      "stateMutability": "view",
      "type": "function",
      "constant": true
    },
    {
      "inputs": [],
      "name": "symbol",
      "outputs": [
        {
          "internalType": "string",
          "name": "",
          "type": "string"
        }
      ],
      "stateMutability": "view",
      "type": "function",
      "constant": true
    },
    {
      "inputs": [
        {
          "internalType": "uint256",
          "name": "tokenId",
          "type": "uint256"
        }
      ],
      "name": "tokenURI",
      "outputs": [
        {
          "internalType": "string",
          "name": "",
          "type": "string"
        }
      ],
      "stateMutability": "view",
      "type": "function",
      "constant": true
    },
    {
      "inputs": [
        {
          "internalType": "address",
          "name": "from",
          "type": "address"
        },
        {
          "internalType": "address",
          "name": "to",
          "type": "address"
        },
        {
          "internalType": "uint256",
          "name": "tokenId",
          "type": "uint256"
        }
      ],
      "name": "transferFrom",
      "outputs": [],
      "stateMutability": "nonpayable",
      "type": "function"
    },
    {
      "inputs": [
        {
          "internalType": "address",
          "name": "newOwner",
          "type": "address"
        }
      ],
      "name": "transferOwnership",
      "outputs": [],
      "stateMutability": "nonpayable",
      "type": "function"
    },
    {
      "inputs": [
        {
          "internalType": "uint256",
          "name": "newPrice",
          "type": "uint256"
        }
      ],
      "name": "setListingPrice",
      "outputs": [],
      "stateMutability": "nonpayable",
      "type": "function"
    },
    {
      "inputs": [
        {
          "internalType": "uint256",
          "name": "tokenId",
          "type": "uint256"
        }
      ],
      "name": "getNftItem",
      "outputs": [
        {
          "components": [
            {
              "internalType": "uint256",
              "name": "tokenId",
              "type": "uint256"
            },
            {
              "internalType": "uint256",
              "name": "price",
              "type": "uint256"
            },
            {
              "internalType": "address",
              "name": "creator",
              "type": "address"
            },
            {
              "internalType": "bool",
              "name": "isListed",
              "type": "bool"
            }
          ],
          "internalType": "struct NftMarket.NftItem",
          "name": "",
          "type": "tuple"
        }
      ],
      "stateMutability": "view",
      "type": "function",
      "constant": true
    },
    {
      "inputs": [],
      "name": "listedItemsCount",
      "outputs": [
        {
          "internalType": "uint256",
          "name": "",
          "type": "uint256"
        }
      ],
      "stateMutability": "view",
      "type": "function",
      "constant": true
    },
    {
      "inputs": [
        {
          "internalType": "string",
          "name": "tokenURI",
          "type": "string"
        }
      ],
      "name": "tokenURIExists",
      "outputs": [
        {
          "internalType": "bool",
          "name": "",
          "type": "bool"
        }
      ],
      "stateMutability": "view",
      "type": "function",
      "constant": true
    },
    {
      "inputs": [],
      "name": "totalSupply",
      "outputs": [
        {
          "internalType": "uint256",
          "name": "",
          "type": "uint256"
        }
      ],
      "stateMutability": "view",
      "type": "function",
      "constant": true
    },
    {
      "inputs": [
        {
          "internalType": "uint256",
          "name": "index",
          "type": "uint256"
        }
      ],
      "name": "tokenByIndex",
      "outputs": [
        {
          "internalType": "uint256",
          "name": "",
          "type": "uint256"
        }
      ],
      "stateMutability": "view",
      "type": "function",
      "constant": true
    },
    {
      "inputs": [
        {
          "internalType": "address",
          "name": "owner",
          "type": "address"
        },
        {
          "internalType": "uint256",
          "name": "index",
          "type": "uint256"
        }
      ],
      "name": "tokenOfOwnerByIndex",
      "outputs": [
        {
          "internalType": "uint256",
          "name": "",
          "type": "uint256"
        }
      ],
      "stateMutability": "view",
      "type": "function",
      "constant": true
    },
    {
      "inputs": [
        {
          "internalType": "uint256",
          "name": "tokenId",
          "type": "uint256"
        }
      ],
      "name": "burnToken",
      "outputs": [],
      "stateMutability": "nonpayable",
      "type": "function"
    },
    {
      "inputs": [],
      "name": "getOwnedNfts",
      "outputs": [
        {
          "components": [
            {
              "internalType": "uint256",
              "name": "tokenId",
              "type": "uint256"
            },
            {
              "internalType": "uint256",
              "name": "price",
              "type": "uint256"
            },
            {
              "internalType": "address",
              "name": "creator",
              "type": "address"
            },
            {
              "internalType": "bool",
              "name": "isListed",
              "type": "bool"
            }
          ],
          "internalType": "struct NftMarket.NftItem[]",
          "name": "",
          "type": "tuple[]"
        }
      ],
      "stateMutability": "view",
      "type": "function",
      "constant": true
    },
    {
      "inputs": [],
      "name": "getAllNftsOnSale",
      "outputs": [
        {
          "components": [
            {
              "internalType": "uint256",
              "name": "tokenId",
              "type": "uint256"
            },
            {
              "internalType": "uint256",
              "name": "price",
              "type": "uint256"
            },
            {
              "internalType": "address",
              "name": "creator",
              "type": "address"
            },
            {
              "internalType": "bool",
              "name": "isListed",
              "type": "bool"
            }
          ],
          "internalType": "struct NftMarket.NftItem[]",
          "name": "",
          "type": "tuple[]"
        }
      ],
      "stateMutability": "view",
      "type": "function",
      "constant": true
    },
    {
      "inputs": [
        {
          "internalType": "string",
          "name": "tokenURI",
          "type": "string"
        },
        {
          "internalType": "uint256",
          "name": "price",
          "type": "uint256"
        }
      ],
      "name": "mintToken",
      "outputs": [
        {
          "internalType": "uint256",
          "name": "",
          "type": "uint256"
        }
      ],
      "stateMutability": "payable",
      "type": "function",
      "payable": true
    },
    {
      "inputs": [
        {
          "internalType": "uint256",
          "name": "tokenId",
          "type": "uint256"
        }
      ],
      "name": "buyNft",
      "outputs": [],
      "stateMutability": "payable",
      "type": "function",
      "payable": true
    },
    {
      "inputs": [
        {
          "internalType": "uint256",
          "name": "tokenId",
          "type": "uint256"
        },
        {
          "internalType": "uint256",
          "name": "newPrice",
          "type": "uint256"
        }
      ],
      "name": "placeNftOnSale",
      "outputs": [],
      "stateMutability": "payable",
      "type": "function",
      "payable": true
    }
  ],
  "bytecode": "0x60806040526658d15e176280006008553480156200001c57600080fd5b506040518060400160405280600c81526020017f4372656174757265734e465400000000000000000000000000000000000000008152506040518060400160405280600481526020017f434e4654000000000000000000000000000000000000000000000000000000008152508160009080519060200190620000a1929190620001b1565b508060019080519060200190620000ba929190620001b1565b505050620000dd620000d1620000e360201b60201c565b620000eb60201b60201c565b620002c5565b600033905090565b6000600760009054906101000a900473ffffffffffffffffffffffffffffffffffffffff16905081600760006101000a81548173ffffffffffffffffffffffffffffffffffffffff021916908373ffffffffffffffffffffffffffffffffffffffff1602179055508173ffffffffffffffffffffffffffffffffffffffff168173ffffffffffffffffffffffffffffffffffffffff167f8be0079c531659141344cd1fd0a4f28419497f9722a3daafe3b4186f6b6457e060405160405180910390a35050565b828054620001bf9062000290565b90600052602060002090601f016020900481019282620001e357600085556200022f565b82601f10620001fe57805160ff19168380011785556200022f565b828001600101855582156200022f579182015b828111156200022e57825182559160200191906001019062000211565b5b5090506200023e919062000242565b5090565b5b808211156200025d57600081600090555060010162000243565b5090565b7f4e487b7100000000000000000000000000000000000000000000000000000000600052602260045260246000fd5b60006002820490506001821680620002a957607f821691505b602082108103620002bf57620002be62000261565b5b50919050565b614d3f80620002d56000396000f3fe6080604052600436106101cd5760003560e01c806370a08231116100f7578063a22cb46511610095578063c87b56dd11610064578063c87b56dd14610685578063ccb4918d146106c2578063e985e9c5146106ed578063f2fde38b1461072a576101cd565b8063a22cb465146105d8578063b88d4fde14610601578063c046372c1461062a578063c78f19f91461065a576101cd565b80637b47ec1a116100d15780637b47ec1a146105305780637c726b69146105595780638da5cb5b1461058257806395d89b41146105ad576101cd565b806370a08231146104b157806370cbcb43146104ee578063715018a614610519576101cd565b8063243adbdd1161016f57806343d32ae71161013e57806343d32ae7146103bd5780634f6ccce7146103fa5780636352211e146104375780636f1a0af514610474576101cd565b8063243adbdd146103105780632f745c591461032c57806336b536be1461036957806342842e0e14610394576101cd565b8063095ea7b3116101ab578063095ea7b31461027757806318160ddd146102a057806321f422e5146102cb57806323b872dd146102e7576101cd565b806301ffc9a7146101d257806306fdde031461020f578063081812fc1461023a575b600080fd5b3480156101de57600080fd5b506101f960048036038101906101f49190613224565b610753565b604051610206919061326c565b60405180910390f35b34801561021b57600080fd5b50610224610835565b6040516102319190613320565b60405180910390f35b34801561024657600080fd5b50610261600480360381019061025c9190613378565b6108c7565b60405161026e91906133e6565b60405180910390f35b34801561028357600080fd5b5061029e6004803603810190610299919061342d565b61094c565b005b3480156102ac57600080fd5b506102b5610a63565b6040516102c2919061347c565b60405180910390f35b6102e560048036038101906102e09190613497565b610a70565b005b3480156102f357600080fd5b5061030e600480360381019061030991906134d7565b610bec565b005b61032a60048036038101906103259190613378565b610c4c565b005b34801561033857600080fd5b50610353600480360381019061034e919061342d565b610e1e565b604051610360919061347c565b60405180910390f35b34801561037557600080fd5b5061037e610ec3565b60405161038b919061365b565b60405180910390f35b3480156103a057600080fd5b506103bb60048036038101906103b691906134d7565b61105d565b005b3480156103c957600080fd5b506103e460048036038101906103df91906137b2565b61107d565b6040516103f1919061326c565b60405180910390f35b34801561040657600080fd5b50610421600480360381019061041c9190613378565b6110b9565b60405161042e919061347c565b60405180910390f35b34801561044357600080fd5b5061045e60048036038101906104599190613378565b61112a565b60405161046b91906133e6565b60405180910390f35b34801561048057600080fd5b5061049b60048036038101906104969190613378565b6111db565b6040516104a89190613850565b60405180910390f35b3480156104bd57600080fd5b506104d860048036038101906104d3919061386b565b61128d565b6040516104e5919061347c565b60405180910390f35b3480156104fa57600080fd5b50610503611344565b604051610510919061365b565b60405180910390f35b34801561052557600080fd5b5061052e6114a8565b005b34801561053c57600080fd5b5061055760048036038101906105529190613378565b611530565b005b34801561056557600080fd5b50610580600480360381019061057b9190613378565b61153c565b005b34801561058e57600080fd5b50610597611605565b6040516105a491906133e6565b60405180910390f35b3480156105b957600080fd5b506105c261162f565b6040516105cf9190613320565b60405180910390f35b3480156105e457600080fd5b506105ff60048036038101906105fa91906138c4565b6116c1565b005b34801561060d57600080fd5b50610628600480360381019061062391906139a5565b6116d7565b005b610644600480360381019061063f9190613a28565b611739565b604051610651919061347c565b60405180910390f35b34801561066657600080fd5b5061066f611849565b60405161067c919061347c565b60405180910390f35b34801561069157600080fd5b506106ac60048036038101906106a79190613378565b61184f565b6040516106b99190613320565b60405180910390f35b3480156106ce57600080fd5b506106d76119a0565b6040516106e4919061347c565b60405180910390f35b3480156106f957600080fd5b50610714600480360381019061070f9190613a84565b6119b1565b604051610721919061326c565b60405180910390f35b34801561073657600080fd5b50610751600480360381019061074c919061386b565b611a45565b005b60007f80ac58cd000000000000000000000000000000000000000000000000000000007bffffffffffffffffffffffffffffffffffffffffffffffffffffffff1916827bffffffffffffffffffffffffffffffffffffffffffffffffffffffff1916148061081e57507f5b5e139f000000000000000000000000000000000000000000000000000000007bffffffffffffffffffffffffffffffffffffffffffffffffffffffff1916827bffffffffffffffffffffffffffffffffffffffffffffffffffffffff1916145b8061082e575061082d82611b3c565b5b9050919050565b60606000805461084490613af3565b80601f016020809104026020016040519081016040528092919081815260200182805461087090613af3565b80156108bd5780601f10610892576101008083540402835291602001916108bd565b820191906000526020600020905b8154815290600101906020018083116108a057829003601f168201915b5050505050905090565b60006108d282611ba6565b610911576040517f08c379a000000000000000000000000000000000000000000000000000000000815260040161090890613b96565b60405180910390fd5b6004600083815260200190815260200160002060009054906101000a900473ffffffffffffffffffffffffffffffffffffffff169050919050565b60006109578261112a565b90508073ffffffffffffffffffffffffffffffffffffffff168373ffffffffffffffffffffffffffffffffffffffff16036109c7576040517f08c379a00000000000000000000000000000000000000000000000000000000081526004016109be90613c28565b60405180910390fd5b8073ffffffffffffffffffffffffffffffffffffffff166109e6611c12565b73ffffffffffffffffffffffffffffffffffffffff161480610a155750610a1481610a0f611c12565b6119b1565b5b610a54576040517f08c379a0000000000000000000000000000000000000000000000000000000008152600401610a4b90613cba565b60405180910390fd5b610a5e8383611c1a565b505050565b6000600b80549050905090565b3373ffffffffffffffffffffffffffffffffffffffff16610a908361112a565b73ffffffffffffffffffffffffffffffffffffffff1614610ae6576040517f08c379a0000000000000000000000000000000000000000000000000000000008152600401610add90613d4c565b60405180910390fd5b60001515600e600084815260200190815260200160002060020160149054906101000a900460ff16151514610b50576040517f08c379a0000000000000000000000000000000000000000000000000000000008152600401610b4790613db8565b60405180910390fd5b6008543414610b94576040517f08c379a0000000000000000000000000000000000000000000000000000000008152600401610b8b90613e4a565b60405180910390fd5b6001600e600084815260200190815260200160002060020160146101000a81548160ff021916908315150217905550610bcd6009611cd3565b80600e6000848152602001908152602001600020600101819055505050565b610bfd610bf7611c12565b82611ce9565b610c3c576040517f08c379a0000000000000000000000000000000000000000000000000000000008152600401610c3390613edc565b60405180910390fd5b610c47838383611dc7565b505050565b6000600e60008381526020019081526020016000206001015490506000610c728361112a565b90508073ffffffffffffffffffffffffffffffffffffffff163373ffffffffffffffffffffffffffffffffffffffff1603610ce2576040517f08c379a0000000000000000000000000000000000000000000000000000000008152600401610cd990613f48565b60405180910390fd5b813414610d24576040517f08c379a0000000000000000000000000000000000000000000000000000000008152600401610d1b90613fb4565b60405180910390fd5b60011515600e600085815260200190815260200160002060020160149054906101000a900460ff16151514610d8e576040517f08c379a0000000000000000000000000000000000000000000000000000000008152600401610d8590614046565b60405180910390fd5b6000600e600085815260200190815260200160002060020160146101000a81548160ff021916908315150217905550610dc7600961202d565b610dd2813385611dc7565b8073ffffffffffffffffffffffffffffffffffffffff166108fc349081150290604051600060405180830381858888f19350505050158015610e18573d6000803e3d6000fd5b50505050565b6000610e298361128d565b8210610e6a576040517f08c379a0000000000000000000000000000000000000000000000000000000008152600401610e61906140b2565b60405180910390fd5b600f60008473ffffffffffffffffffffffffffffffffffffffff1673ffffffffffffffffffffffffffffffffffffffff168152602001908152602001600020600083815260200190815260200160002054905092915050565b60606000610ecf610a63565b9050600080610ede6009612089565b67ffffffffffffffff811115610ef757610ef6613687565b5b604051908082528060200260200182016040528015610f3057816020015b610f1d613095565b815260200190600190039081610f155790505b50905060005b83811015611053576000610f49826110b9565b90506000600e60008381526020019081526020016000209050600115158160020160149054906101000a900460ff1615150361103e578060405180608001604052908160008201548152602001600182015481526020016002820160009054906101000a900473ffffffffffffffffffffffffffffffffffffffff1673ffffffffffffffffffffffffffffffffffffffff1673ffffffffffffffffffffffffffffffffffffffff1681526020016002820160149054906101000a900460ff161515151581525050848681518110611023576110226140d2565b5b602002602001018190525060018561103b9190614130565b94505b5050808061104b90614186565b915050610f36565b5080935050505090565b611078838383604051806020016040528060008152506116d7565b505050565b600060011515600d83604051611093919061420a565b908152602001604051809103902060009054906101000a900460ff161515149050919050565b60006110c3610a63565b8210611104576040517f08c379a00000000000000000000000000000000000000000000000000000000081526004016110fb906140b2565b60405180910390fd5b600b8281548110611118576111176140d2565b5b90600052602060002001549050919050565b6000806002600084815260200190815260200160002060009054906101000a900473ffffffffffffffffffffffffffffffffffffffff169050600073ffffffffffffffffffffffffffffffffffffffff168173ffffffffffffffffffffffffffffffffffffffff16036111d2576040517f08c379a00000000000000000000000000000000000000000000000000000000081526004016111c990614293565b60405180910390fd5b80915050919050565b6111e3613095565b600e600083815260200190815260200160002060405180608001604052908160008201548152602001600182015481526020016002820160009054906101000a900473ffffffffffffffffffffffffffffffffffffffff1673ffffffffffffffffffffffffffffffffffffffff1673ffffffffffffffffffffffffffffffffffffffff1681526020016002820160149054906101000a900460ff1615151515815250509050919050565b60008073ffffffffffffffffffffffffffffffffffffffff168273ffffffffffffffffffffffffffffffffffffffff16036112fd576040517f08c379a00000000000000000000000000000000000000000000000000000000081526004016112f490614325565b60405180910390fd5b600360008373ffffffffffffffffffffffffffffffffffffffff1673ffffffffffffffffffffffffffffffffffffffff168152602001908152602001600020549050919050565b606060006113513361128d565b905060008167ffffffffffffffff81111561136f5761136e613687565b5b6040519080825280602002602001820160405280156113a857816020015b611395613095565b81526020019060019003908161138d5790505b50905060005b8281101561149f5760006113c23383610e1e565b90506000600e600083815260200190815260200160002090508060405180608001604052908160008201548152602001600182015481526020016002820160009054906101000a900473ffffffffffffffffffffffffffffffffffffffff1673ffffffffffffffffffffffffffffffffffffffff1673ffffffffffffffffffffffffffffffffffffffff1681526020016002820160149054906101000a900460ff16151515158152505084848151811061147f5761147e6140d2565b5b60200260200101819052505050808061149790614186565b9150506113ae565b50809250505090565b6114b0611c12565b73ffffffffffffffffffffffffffffffffffffffff166114ce611605565b73ffffffffffffffffffffffffffffffffffffffff1614611524576040517f08c379a000000000000000000000000000000000000000000000000000000000815260040161151b90614391565b60405180910390fd5b61152e6000612097565b565b6115398161215d565b50565b611544611c12565b73ffffffffffffffffffffffffffffffffffffffff16611562611605565b73ffffffffffffffffffffffffffffffffffffffff16146115b8576040517f08c379a00000000000000000000000000000000000000000000000000000000081526004016115af90614391565b60405180910390fd5b600081116115fb576040517f08c379a00000000000000000000000000000000000000000000000000000000081526004016115f2906143fd565b60405180910390fd5b8060088190555050565b6000600760009054906101000a900473ffffffffffffffffffffffffffffffffffffffff16905090565b60606001805461163e90613af3565b80601f016020809104026020016040519081016040528092919081815260200182805461166a90613af3565b80156116b75780601f1061168c576101008083540402835291602001916116b7565b820191906000526020600020905b81548152906001019060200180831161169a57829003601f168201915b5050505050905090565b6116d36116cc611c12565b83836121b0565b5050565b6116e86116e2611c12565b83611ce9565b611727576040517f08c379a000000000000000000000000000000000000000000000000000000000815260040161171e90613edc565b60405180910390fd5b6117338484848461231c565b50505050565b60006117448361107d565b15611784576040517f08c379a000000000000000000000000000000000000000000000000000000000815260040161177b90614469565b60405180910390fd5b60085434146117c8576040517f08c379a00000000000000000000000000000000000000000000000000000000081526004016117bf90613e4a565b60405180910390fd5b6117d2600a611cd3565b6117dc6009611cd3565b60006117e8600a612089565b90506117f43382612378565b6117fe8185612396565b611808818461240a565b6001600d8560405161181a919061420a565b908152602001604051809103902060006101000a81548160ff0219169083151502179055508091505092915050565b60085481565b606061185a82611ba6565b611899576040517f08c379a0000000000000000000000000000000000000000000000000000000008152600401611890906144fb565b60405180910390fd5b60006006600084815260200190815260200160002080546118b990613af3565b80601f01602080910402602001604051908101604052809291908181526020018280546118e590613af3565b80156119325780601f1061190757610100808354040283529160200191611932565b820191906000526020600020905b81548152906001019060200180831161191557829003601f168201915b50505050509050600061194361255a565b9050600081510361195857819250505061199b565b60008251111561198d57808260405160200161197592919061451b565b6040516020818303038152906040529250505061199b565b61199684612571565b925050505b919050565b60006119ac6009612089565b905090565b6000600560008473ffffffffffffffffffffffffffffffffffffffff1673ffffffffffffffffffffffffffffffffffffffff16815260200190815260200160002060008373ffffffffffffffffffffffffffffffffffffffff1673ffffffffffffffffffffffffffffffffffffffff16815260200190815260200160002060009054906101000a900460ff16905092915050565b611a4d611c12565b73ffffffffffffffffffffffffffffffffffffffff16611a6b611605565b73ffffffffffffffffffffffffffffffffffffffff1614611ac1576040517f08c379a0000000000000000000000000000000000000000000000000000000008152600401611ab890614391565b60405180910390fd5b600073ffffffffffffffffffffffffffffffffffffffff168173ffffffffffffffffffffffffffffffffffffffff1603611b30576040517f08c379a0000000000000000000000000000000000000000000000000000000008152600401611b27906145b1565b60405180910390fd5b611b3981612097565b50565b60007f01ffc9a7000000000000000000000000000000000000000000000000000000007bffffffffffffffffffffffffffffffffffffffffffffffffffffffff1916827bffffffffffffffffffffffffffffffffffffffffffffffffffffffff1916149050919050565b60008073ffffffffffffffffffffffffffffffffffffffff166002600084815260200190815260200160002060009054906101000a900473ffffffffffffffffffffffffffffffffffffffff1673ffffffffffffffffffffffffffffffffffffffff1614159050919050565b600033905090565b816004600083815260200190815260200160002060006101000a81548173ffffffffffffffffffffffffffffffffffffffff021916908373ffffffffffffffffffffffffffffffffffffffff160217905550808273ffffffffffffffffffffffffffffffffffffffff16611c8d8361112a565b73ffffffffffffffffffffffffffffffffffffffff167f8c5be1e5ebec7d5bd14f71427d1e84f3dd0314c0f7b2291e5b200ac8c7c3b92560405160405180910390a45050565b6001816000016000828254019250508190555050565b6000611cf482611ba6565b611d33576040517f08c379a0000000000000000000000000000000000000000000000000000000008152600401611d2a90614643565b60405180910390fd5b6000611d3e8361112a565b90508073ffffffffffffffffffffffffffffffffffffffff168473ffffffffffffffffffffffffffffffffffffffff161480611d805750611d7f81856119b1565b5b80611dbe57508373ffffffffffffffffffffffffffffffffffffffff16611da6846108c7565b73ffffffffffffffffffffffffffffffffffffffff16145b91505092915050565b8273ffffffffffffffffffffffffffffffffffffffff16611de78261112a565b73ffffffffffffffffffffffffffffffffffffffff1614611e3d576040517f08c379a0000000000000000000000000000000000000000000000000000000008152600401611e34906146d5565b60405180910390fd5b600073ffffffffffffffffffffffffffffffffffffffff168273ffffffffffffffffffffffffffffffffffffffff1603611eac576040517f08c379a0000000000000000000000000000000000000000000000000000000008152600401611ea390614767565b60405180910390fd5b611eb7838383612618565b611ec2600082611c1a565b6001600360008573ffffffffffffffffffffffffffffffffffffffff1673ffffffffffffffffffffffffffffffffffffffff1681526020019081526020016000206000828254611f129190614787565b925050819055506001600360008473ffffffffffffffffffffffffffffffffffffffff1673ffffffffffffffffffffffffffffffffffffffff1681526020019081526020016000206000828254611f699190614130565b92505081905550816002600083815260200190815260200160002060006101000a81548173ffffffffffffffffffffffffffffffffffffffff021916908373ffffffffffffffffffffffffffffffffffffffff160217905550808273ffffffffffffffffffffffffffffffffffffffff168473ffffffffffffffffffffffffffffffffffffffff167fddf252ad1be2c89b69c2b068fc378daa952ba7f163c4a11628f55a4df523b3ef60405160405180910390a461202883838361272a565b505050565b60008160000154905060008111612079576040517f08c379a000000000000000000000000000000000000000000000000000000000815260040161207090614807565b60405180910390fd5b6001810382600001819055505050565b600081600001549050919050565b6000600760009054906101000a900473ffffffffffffffffffffffffffffffffffffffff16905081600760006101000a81548173ffffffffffffffffffffffffffffffffffffffff021916908373ffffffffffffffffffffffffffffffffffffffff1602179055508173ffffffffffffffffffffffffffffffffffffffff168173ffffffffffffffffffffffffffffffffffffffff167f8be0079c531659141344cd1fd0a4f28419497f9722a3daafe3b4186f6b6457e060405160405180910390a35050565b6121668161272f565b600060066000838152602001908152602001600020805461218690613af3565b9050146121ad576006600082815260200190815260200160002060006121ac91906130d5565b5b50565b8173ffffffffffffffffffffffffffffffffffffffff168373ffffffffffffffffffffffffffffffffffffffff160361221e576040517f08c379a000000000000000000000000000000000000000000000000000000000815260040161221590614873565b60405180910390fd5b80600560008573ffffffffffffffffffffffffffffffffffffffff1673ffffffffffffffffffffffffffffffffffffffff16815260200190815260200160002060008473ffffffffffffffffffffffffffffffffffffffff1673ffffffffffffffffffffffffffffffffffffffff16815260200190815260200160002060006101000a81548160ff0219169083151502179055508173ffffffffffffffffffffffffffffffffffffffff168373ffffffffffffffffffffffffffffffffffffffff167f17307eab39ab6107e8899845ad3d59bd9653f200f220920489ca2b5937696c318360405161230f919061326c565b60405180910390a3505050565b612327848484611dc7565b6123338484848461284c565b612372576040517f08c379a000000000000000000000000000000000000000000000000000000000815260040161236990614905565b60405180910390fd5b50505050565b6123928282604051806020016040528060008152506129d3565b5050565b61239f82611ba6565b6123de576040517f08c379a00000000000000000000000000000000000000000000000000000000081526004016123d590614997565b60405180910390fd5b80600660008481526020019081526020016000209080519060200190612405929190613115565b505050565b6000811161244d576040517f08c379a0000000000000000000000000000000000000000000000000000000008152600401612444906143fd565b60405180910390fd5b60405180608001604052808381526020018281526020013373ffffffffffffffffffffffffffffffffffffffff16815260200160011515815250600e6000848152602001908152602001600020600082015181600001556020820151816001015560408201518160020160006101000a81548173ffffffffffffffffffffffffffffffffffffffff021916908373ffffffffffffffffffffffffffffffffffffffff16021790555060608201518160020160146101000a81548160ff0219169083151502179055509050507f470031062672bc0246e132c723a729c4676710ec663a29e86c88678032daddea828233600160405161254e94939291906149b7565b60405180910390a15050565b606060405180602001604052806000815250905090565b606061257c82611ba6565b6125bb576040517f08c379a00000000000000000000000000000000000000000000000000000000081526004016125b290614a6e565b60405180910390fd5b60006125c561255a565b905060008151116125e55760405180602001604052806000815250612610565b806125ef84612a2e565b60405160200161260092919061451b565b6040516020818303038152906040525b915050919050565b612623838383612b8e565b600073ffffffffffffffffffffffffffffffffffffffff168373ffffffffffffffffffffffffffffffffffffffff16036126655761266081612b93565b6126a4565b8173ffffffffffffffffffffffffffffffffffffffff168373ffffffffffffffffffffffffffffffffffffffff16146126a3576126a28382612bdc565b5b5b600073ffffffffffffffffffffffffffffffffffffffff168273ffffffffffffffffffffffffffffffffffffffff16036126e6576126e181612d49565b612725565b8273ffffffffffffffffffffffffffffffffffffffff168273ffffffffffffffffffffffffffffffffffffffff1614612724576127238282612e1a565b5b5b505050565b505050565b600061273a8261112a565b905061274881600084612618565b612753600083611c1a565b6001600360008373ffffffffffffffffffffffffffffffffffffffff1673ffffffffffffffffffffffffffffffffffffffff16815260200190815260200160002060008282546127a39190614787565b925050819055506002600083815260200190815260200160002060006101000a81549073ffffffffffffffffffffffffffffffffffffffff021916905581600073ffffffffffffffffffffffffffffffffffffffff168273ffffffffffffffffffffffffffffffffffffffff167fddf252ad1be2c89b69c2b068fc378daa952ba7f163c4a11628f55a4df523b3ef60405160405180910390a46128488160008461272a565b5050565b600061286d8473ffffffffffffffffffffffffffffffffffffffff16612e99565b156129c6578373ffffffffffffffffffffffffffffffffffffffff1663150b7a02612896611c12565b8786866040518563ffffffff1660e01b81526004016128b89493929190614ae3565b6020604051808303816000875af19250505080156128f457506040513d601f19601f820116820180604052508101906128f19190614b44565b60015b612976573d8060008114612924576040519150601f19603f3d011682016040523d82523d6000602084013e612929565b606091505b50600081510361296e576040517f08c379a000000000000000000000000000000000000000000000000000000000815260040161296590614905565b60405180910390fd5b805181602001fd5b63150b7a0260e01b7bffffffffffffffffffffffffffffffffffffffffffffffffffffffff1916817bffffffffffffffffffffffffffffffffffffffffffffffffffffffff1916149150506129cb565b600190505b949350505050565b6129dd8383612ebc565b6129ea600084848461284c565b612a29576040517f08c379a0000000000000000000000000000000000000000000000000000000008152600401612a2090614905565b60405180910390fd5b505050565b606060008203612a75576040518060400160405280600181526020017f30000000000000000000000000000000000000000000000000000000000000008152509050612b89565b600082905060005b60008214612aa7578080612a9090614186565b915050600a82612aa09190614ba0565b9150612a7d565b60008167ffffffffffffffff811115612ac357612ac2613687565b5b6040519080825280601f01601f191660200182016040528015612af55781602001600182028036833780820191505090505b5090505b60008514612b8257600182612b0e9190614787565b9150600a85612b1d9190614bd1565b6030612b299190614130565b60f81b818381518110612b3f57612b3e6140d2565b5b60200101907effffffffffffffffffffffffffffffffffffffffffffffffffffffffffffff1916908160001a905350600a85612b7b9190614ba0565b9450612af9565b8093505050505b919050565b505050565b600b80549050600c600083815260200190815260200160002081905550600b81908060018154018082558091505060019003906000526020600020016000909190919091505550565b60006001612be98461128d565b612bf39190614787565b9050600060106000848152602001908152602001600020549050818114612cd8576000600f60008673ffffffffffffffffffffffffffffffffffffffff1673ffffffffffffffffffffffffffffffffffffffff168152602001908152602001600020600084815260200190815260200160002054905080600f60008773ffffffffffffffffffffffffffffffffffffffff1673ffffffffffffffffffffffffffffffffffffffff168152602001908152602001600020600084815260200190815260200160002081905550816010600083815260200190815260200160002081905550505b6010600084815260200190815260200160002060009055600f60008573ffffffffffffffffffffffffffffffffffffffff1673ffffffffffffffffffffffffffffffffffffffff16815260200190815260200160002060008381526020019081526020016000206000905550505050565b60006001600b80549050612d5d9190614787565b90506000600c60008481526020019081526020016000205490506000600b8381548110612d8d57612d8c6140d2565b5b9060005260206000200154905080600b8381548110612daf57612dae6140d2565b5b906000526020600020018190555081600c600083815260200190815260200160002081905550600c600085815260200190815260200160002060009055600b805480612dfe57612dfd614c02565b5b6001900381819060005260206000200160009055905550505050565b6000612e258361128d565b905081600f60008573ffffffffffffffffffffffffffffffffffffffff1673ffffffffffffffffffffffffffffffffffffffff168152602001908152602001600020600083815260200190815260200160002081905550806010600084815260200190815260200160002081905550505050565b6000808273ffffffffffffffffffffffffffffffffffffffff163b119050919050565b600073ffffffffffffffffffffffffffffffffffffffff168273ffffffffffffffffffffffffffffffffffffffff1603612f2b576040517f08c379a0000000000000000000000000000000000000000000000000000000008152600401612f2290614c7d565b60405180910390fd5b612f3481611ba6565b15612f74576040517f08c379a0000000000000000000000000000000000000000000000000000000008152600401612f6b90614ce9565b60405180910390fd5b612f8060008383612618565b6001600360008473ffffffffffffffffffffffffffffffffffffffff1673ffffffffffffffffffffffffffffffffffffffff1681526020019081526020016000206000828254612fd09190614130565b92505081905550816002600083815260200190815260200160002060006101000a81548173ffffffffffffffffffffffffffffffffffffffff021916908373ffffffffffffffffffffffffffffffffffffffff160217905550808273ffffffffffffffffffffffffffffffffffffffff16600073ffffffffffffffffffffffffffffffffffffffff167fddf252ad1be2c89b69c2b068fc378daa952ba7f163c4a11628f55a4df523b3ef60405160405180910390a46130916000838361272a565b5050565b60405180608001604052806000815260200160008152602001600073ffffffffffffffffffffffffffffffffffffffff1681526020016000151581525090565b5080546130e190613af3565b6000825580601f106130f35750613112565b601f016020900490600052602060002090810190613111919061319b565b5b50565b82805461312190613af3565b90600052602060002090601f016020900481019282613143576000855561318a565b82601f1061315c57805160ff191683800117855561318a565b8280016001018555821561318a579182015b8281111561318957825182559160200191906001019061316e565b5b509050613197919061319b565b5090565b5b808211156131b457600081600090555060010161319c565b5090565b6000604051905090565b600080fd5b600080fd5b60007fffffffff0000000000000000000000000000000000000000000000000000000082169050919050565b613201816131cc565b811461320c57600080fd5b50565b60008135905061321e816131f8565b92915050565b60006020828403121561323a576132396131c2565b5b60006132488482850161320f565b91505092915050565b60008115159050919050565b61326681613251565b82525050565b6000602082019050613281600083018461325d565b92915050565b600081519050919050565b600082825260208201905092915050565b60005b838110156132c15780820151818401526020810190506132a6565b838111156132d0576000848401525b50505050565b6000601f19601f8301169050919050565b60006132f282613287565b6132fc8185613292565b935061330c8185602086016132a3565b613315816132d6565b840191505092915050565b6000602082019050818103600083015261333a81846132e7565b905092915050565b6000819050919050565b61335581613342565b811461336057600080fd5b50565b6000813590506133728161334c565b92915050565b60006020828403121561338e5761338d6131c2565b5b600061339c84828501613363565b91505092915050565b600073ffffffffffffffffffffffffffffffffffffffff82169050919050565b60006133d0826133a5565b9050919050565b6133e0816133c5565b82525050565b60006020820190506133fb60008301846133d7565b92915050565b61340a816133c5565b811461341557600080fd5b50565b60008135905061342781613401565b92915050565b60008060408385031215613444576134436131c2565b5b600061345285828601613418565b925050602061346385828601613363565b9150509250929050565b61347681613342565b82525050565b6000602082019050613491600083018461346d565b92915050565b600080604083850312156134ae576134ad6131c2565b5b60006134bc85828601613363565b92505060206134cd85828601613363565b9150509250929050565b6000806000606084860312156134f0576134ef6131c2565b5b60006134fe86828701613418565b935050602061350f86828701613418565b925050604061352086828701613363565b9150509250925092565b600081519050919050565b600082825260208201905092915050565b6000819050602082019050919050565b61355f81613342565b82525050565b61356e816133c5565b82525050565b61357d81613251565b82525050565b6080820160008201516135996000850182613556565b5060208201516135ac6020850182613556565b5060408201516135bf6040850182613565565b5060608201516135d26060850182613574565b50505050565b60006135e48383613583565b60808301905092915050565b6000602082019050919050565b60006136088261352a565b6136128185613535565b935061361d83613546565b8060005b8381101561364e57815161363588826135d8565b9750613640836135f0565b925050600181019050613621565b5085935050505092915050565b6000602082019050818103600083015261367581846135fd565b905092915050565b600080fd5b600080fd5b7f4e487b7100000000000000000000000000000000000000000000000000000000600052604160045260246000fd5b6136bf826132d6565b810181811067ffffffffffffffff821117156136de576136dd613687565b5b80604052505050565b60006136f16131b8565b90506136fd82826136b6565b919050565b600067ffffffffffffffff82111561371d5761371c613687565b5b613726826132d6565b9050602081019050919050565b82818337600083830152505050565b600061375561375084613702565b6136e7565b90508281526020810184848401111561377157613770613682565b5b61377c848285613733565b509392505050565b600082601f8301126137995761379861367d565b5b81356137a9848260208601613742565b91505092915050565b6000602082840312156137c8576137c76131c2565b5b600082013567ffffffffffffffff8111156137e6576137e56131c7565b5b6137f284828501613784565b91505092915050565b6080820160008201516138116000850182613556565b5060208201516138246020850182613556565b5060408201516138376040850182613565565b50606082015161384a6060850182613574565b50505050565b600060808201905061386560008301846137fb565b92915050565b600060208284031215613881576138806131c2565b5b600061388f84828501613418565b91505092915050565b6138a181613251565b81146138ac57600080fd5b50565b6000813590506138be81613898565b92915050565b600080604083850312156138db576138da6131c2565b5b60006138e985828601613418565b92505060206138fa858286016138af565b9150509250929050565b600067ffffffffffffffff82111561391f5761391e613687565b5b613928826132d6565b9050602081019050919050565b600061394861394384613904565b6136e7565b90508281526020810184848401111561396457613963613682565b5b61396f848285613733565b509392505050565b600082601f83011261398c5761398b61367d565b5b813561399c848260208601613935565b91505092915050565b600080600080608085870312156139bf576139be6131c2565b5b60006139cd87828801613418565b94505060206139de87828801613418565b93505060406139ef87828801613363565b925050606085013567ffffffffffffffff811115613a1057613a0f6131c7565b5b613a1c87828801613977565b91505092959194509250565b60008060408385031215613a3f57613a3e6131c2565b5b600083013567ffffffffffffffff811115613a5d57613a5c6131c7565b5b613a6985828601613784565b9250506020613a7a85828601613363565b9150509250929050565b60008060408385031215613a9b57613a9a6131c2565b5b6000613aa985828601613418565b9250506020613aba85828601613418565b9150509250929050565b7f4e487b7100000000000000000000000000000000000000000000000000000000600052602260045260246000fd5b60006002820490506001821680613b0b57607f821691505b602082108103613b1e57613b1d613ac4565b5b50919050565b7f4552433732313a20617070726f76656420717565727920666f72206e6f6e657860008201527f697374656e7420746f6b656e0000000000000000000000000000000000000000602082015250565b6000613b80602c83613292565b9150613b8b82613b24565b604082019050919050565b60006020820190508181036000830152613baf81613b73565b9050919050565b7f4552433732313a20617070726f76616c20746f2063757272656e74206f776e6560008201527f7200000000000000000000000000000000000000000000000000000000000000602082015250565b6000613c12602183613292565b9150613c1d82613bb6565b604082019050919050565b60006020820190508181036000830152613c4181613c05565b9050919050565b7f4552433732313a20617070726f76652063616c6c6572206973206e6f74206f7760008201527f6e6572206e6f7220617070726f76656420666f7220616c6c0000000000000000602082015250565b6000613ca4603883613292565b9150613caf82613c48565b604082019050919050565b60006020820190508181036000830152613cd381613c97565b9050919050565b7f596f7520617265206e6f7420746865206f776e6572206f662074686973204e4660008201527f5400000000000000000000000000000000000000000000000000000000000000602082015250565b6000613d36602183613292565b9150613d4182613cda565b604082019050919050565b60006020820190508181036000830152613d6581613d29565b9050919050565b7f4974656d20697320616c7265616479206c697374656400000000000000000000600082015250565b6000613da2601683613292565b9150613dad82613d6c565b602082019050919050565b60006020820190508181036000830152613dd181613d95565b9050919050565b7f5072696365206d75737420626520657175616c20746f206c697374696e67207060008201527f7269636500000000000000000000000000000000000000000000000000000000602082015250565b6000613e34602483613292565b9150613e3f82613dd8565b604082019050919050565b60006020820190508181036000830152613e6381613e27565b9050919050565b7f4552433732313a207472616e736665722063616c6c6572206973206e6f74206f60008201527f776e6572206e6f7220617070726f766564000000000000000000000000000000602082015250565b6000613ec6603183613292565b9150613ed182613e6a565b604082019050919050565b60006020820190508181036000830152613ef581613eb9565b9050919050565b7f596f7520616c7265616479206f776e2074686973206e66740000000000000000600082015250565b6000613f32601883613292565b9150613f3d82613efc565b602082019050919050565b60006020820190508181036000830152613f6181613f25565b9050919050565b7f506c65617365207375626d6974207468652061736b696e672070726963650000600082015250565b6000613f9e601e83613292565b9150613fa982613f68565b602082019050919050565b60006020820190508181036000830152613fcd81613f91565b9050919050565b7f546f6b656e20796f752061726520747279696e6720746f20627579206973206e60008201527f6f74206c697374656420666f722073616c652e00000000000000000000000000602082015250565b6000614030603383613292565b915061403b82613fd4565b604082019050919050565b6000602082019050818103600083015261405f81614023565b9050919050565b7f496e646578206f7574206f6620626f756e647300000000000000000000000000600082015250565b600061409c601383613292565b91506140a782614066565b602082019050919050565b600060208201905081810360008301526140cb8161408f565b9050919050565b7f4e487b7100000000000000000000000000000000000000000000000000000000600052603260045260246000fd5b7f4e487b7100000000000000000000000000000000000000000000000000000000600052601160045260246000fd5b600061413b82613342565b915061414683613342565b9250827fffffffffffffffffffffffffffffffffffffffffffffffffffffffffffffffff0382111561417b5761417a614101565b5b828201905092915050565b600061419182613342565b91507fffffffffffffffffffffffffffffffffffffffffffffffffffffffffffffffff82036141c3576141c2614101565b5b600182019050919050565b600081905092915050565b60006141e482613287565b6141ee81856141ce565b93506141fe8185602086016132a3565b80840191505092915050565b600061421682846141d9565b915081905092915050565b7f4552433732313a206f776e657220717565727920666f72206e6f6e657869737460008201527f656e7420746f6b656e0000000000000000000000000000000000000000000000602082015250565b600061427d602983613292565b915061428882614221565b604082019050919050565b600060208201905081810360008301526142ac81614270565b9050919050565b7f4552433732313a2062616c616e636520717565727920666f7220746865207a6560008201527f726f206164647265737300000000000000000000000000000000000000000000602082015250565b600061430f602a83613292565b915061431a826142b3565b604082019050919050565b6000602082019050818103600083015261433e81614302565b9050919050565b7f4f776e61626c653a2063616c6c6572206973206e6f7420746865206f776e6572600082015250565b600061437b602083613292565b915061438682614345565b602082019050919050565b600060208201905081810360008301526143aa8161436e565b9050919050565b7f5072696365206d757374206265206174206c6561737420312077656900000000600082015250565b60006143e7601c83613292565b91506143f2826143b1565b602082019050919050565b60006020820190508181036000830152614416816143da565b9050919050565b7f546f6b656e2055524920616c7265616479206578697374730000000000000000600082015250565b6000614453601883613292565b915061445e8261441d565b602082019050919050565b6000602082019050818103600083015261448281614446565b9050919050565b7f45524337323155524953746f726167653a2055524920717565727920666f722060008201527f6e6f6e6578697374656e7420746f6b656e000000000000000000000000000000602082015250565b60006144e5603183613292565b91506144f082614489565b604082019050919050565b60006020820190508181036000830152614514816144d8565b9050919050565b600061452782856141d9565b915061453382846141d9565b91508190509392505050565b7f4f776e61626c653a206e6577206f776e657220697320746865207a65726f206160008201527f6464726573730000000000000000000000000000000000000000000000000000602082015250565b600061459b602683613292565b91506145a68261453f565b604082019050919050565b600060208201905081810360008301526145ca8161458e565b9050919050565b7f4552433732313a206f70657261746f7220717565727920666f72206e6f6e657860008201527f697374656e7420746f6b656e0000000000000000000000000000000000000000602082015250565b600061462d602c83613292565b9150614638826145d1565b604082019050919050565b6000602082019050818103600083015261465c81614620565b9050919050565b7f4552433732313a207472616e736665722066726f6d20696e636f72726563742060008201527f6f776e6572000000000000000000000000000000000000000000000000000000602082015250565b60006146bf602583613292565b91506146ca82614663565b604082019050919050565b600060208201905081810360008301526146ee816146b2565b9050919050565b7f4552433732313a207472616e7366657220746f20746865207a65726f2061646460008201527f7265737300000000000000000000000000000000000000000000000000000000602082015250565b6000614751602483613292565b915061475c826146f5565b604082019050919050565b6000602082019050818103600083015261478081614744565b9050919050565b600061479282613342565b915061479d83613342565b9250828210156147b0576147af614101565b5b828203905092915050565b7f436f756e7465723a2064656372656d656e74206f766572666c6f770000000000600082015250565b60006147f1601b83613292565b91506147fc826147bb565b602082019050919050565b60006020820190508181036000830152614820816147e4565b9050919050565b7f4552433732313a20617070726f766520746f2063616c6c657200000000000000600082015250565b600061485d601983613292565b915061486882614827565b602082019050919050565b6000602082019050818103600083015261488c81614850565b9050919050565b7f4552433732313a207472616e7366657220746f206e6f6e20455243373231526560008201527f63656976657220696d706c656d656e7465720000000000000000000000000000602082015250565b60006148ef603283613292565b91506148fa82614893565b604082019050919050565b6000602082019050818103600083015261491e816148e2565b9050919050565b7f45524337323155524953746f726167653a2055524920736574206f66206e6f6e60008201527f6578697374656e7420746f6b656e000000000000000000000000000000000000602082015250565b6000614981602e83613292565b915061498c82614925565b604082019050919050565b600060208201905081810360008301526149b081614974565b9050919050565b60006080820190506149cc600083018761346d565b6149d9602083018661346d565b6149e660408301856133d7565b6149f3606083018461325d565b95945050505050565b7f4552433732314d657461646174613a2055524920717565727920666f72206e6f60008201527f6e6578697374656e7420746f6b656e0000000000000000000000000000000000602082015250565b6000614a58602f83613292565b9150614a63826149fc565b604082019050919050565b60006020820190508181036000830152614a8781614a4b565b9050919050565b600081519050919050565b600082825260208201905092915050565b6000614ab582614a8e565b614abf8185614a99565b9350614acf8185602086016132a3565b614ad8816132d6565b840191505092915050565b6000608082019050614af860008301876133d7565b614b0560208301866133d7565b614b12604083018561346d565b8181036060830152614b248184614aaa565b905095945050505050565b600081519050614b3e816131f8565b92915050565b600060208284031215614b5a57614b596131c2565b5b6000614b6884828501614b2f565b91505092915050565b7f4e487b7100000000000000000000000000000000000000000000000000000000600052601260045260246000fd5b6000614bab82613342565b9150614bb683613342565b925082614bc657614bc5614b71565b5b828204905092915050565b6000614bdc82613342565b9150614be783613342565b925082614bf757614bf6614b71565b5b828206905092915050565b7f4e487b7100000000000000000000000000000000000000000000000000000000600052603160045260246000fd5b7f4552433732313a206d696e7420746f20746865207a65726f2061646472657373600082015250565b6000614c67602083613292565b9150614c7282614c31565b602082019050919050565b60006020820190508181036000830152614c9681614c5a565b9050919050565b7f4552433732313a20746f6b656e20616c7265616479206d696e74656400000000600082015250565b6000614cd3601c83613292565b9150614cde82614c9d565b602082019050919050565b60006020820190508181036000830152614d0281614cc6565b905091905056fea2646970667358221220ddf7094223f56e51434a6eb337221b9d1931a1be81ed2e33aeb254bac5989d9a64736f6c634300080e0033",
  "immutableReferences": {},
  "source": "// SPDX-License-Identifier: MIT\npragma solidity >=0.4.22 <0.9.0;\n\nimport \"@openzeppelin/contracts/token/ERC721/extensions/ERC721URIStorage.sol\";\nimport \"@openzeppelin/contracts/utils/Counters.sol\";\nimport \"@openzeppelin/contracts/access/Ownable.sol\";\n\ncontract NftMarket is ERC721URIStorage, Ownable {\n    using Counters for Counters.Counter;\n\n    struct NftItem {\n        uint256 tokenId;\n        uint256 price;\n        address creator;\n        bool isListed;\n    }\n\n    uint256 public listingPrice = 0.025 ether;\n\n    Counters.Counter private _listedItems;\n    Counters.Counter private _tokenIds;\n\n    uint256[] private _allNfts;\n    mapping(uint256 => uint256) private _idToNftIndex;\n\n    mapping(string => bool) private _usedTokenURIs;\n    mapping(uint256 => NftItem) private _idToNftItem;\n\n    mapping(address => mapping(uint256 => uint256)) private _ownedTokens;\n    mapping(uint256 => uint256) private _idToOwnedIndex;\n\n    event NftItemCreated(\n        uint256 tokenId,\n        uint256 price,\n        address creator,\n        bool isListed\n    );\n\n    constructor() ERC721(\"CreaturesNFT\", \"CNFT\") {}\n\n    function setListingPrice(uint256 newPrice) external onlyOwner {\n        require(newPrice > 0, \"Price must be at least 1 wei\");\n        listingPrice = newPrice;\n    }\n\n    function getNftItem(uint256 tokenId) public view returns (NftItem memory) {\n        return _idToNftItem[tokenId];\n    }\n\n    function listedItemsCount() public view returns (uint256) {\n        return _listedItems.current();\n    }\n\n    function tokenURIExists(string memory tokenURI) public view returns (bool) {\n        return _usedTokenURIs[tokenURI] == true;\n    }\n\n    function totalSupply() public view returns (uint256) {\n        return _allNfts.length;\n    }\n\n    function tokenByIndex(uint256 index) public view returns (uint256) {\n        require(index < totalSupply(), \"Index out of bounds\");\n        return _allNfts[index];\n    }\n\n    function tokenOfOwnerByIndex(address owner, uint256 index)\n        public\n        view\n        returns (uint256)\n    {\n        require(index < ERC721.balanceOf(owner), \"Index out of bounds\");\n        return _ownedTokens[owner][index];\n    }\n\n    function burnToken(uint256 tokenId) public {\n        _burn(tokenId);\n    }\n\n    function getOwnedNfts() public view returns (NftItem[] memory) {\n        uint256 ownedItemsCount = ERC721.balanceOf(msg.sender);\n        NftItem[] memory items = new NftItem[](ownedItemsCount);\n        for (uint256 i = 0; i < ownedItemsCount; i++) {\n            uint256 tokenId = tokenOfOwnerByIndex(msg.sender, i);\n            NftItem storage item = _idToNftItem[tokenId];\n            items[i] = item;\n        }\n        return items;\n    }\n\n    function getAllNftsOnSale() public view returns (NftItem[] memory) {\n        uint256 allItemsCounts = totalSupply();\n        uint256 currentIndex = 0;\n        NftItem[] memory items = new NftItem[](_listedItems.current());\n\n        for (uint256 i = 0; i < allItemsCounts; i++) {\n            uint256 tokenId = tokenByIndex(i);\n            NftItem storage item = _idToNftItem[tokenId];\n\n            if (item.isListed == true) {\n                items[currentIndex] = item;\n                currentIndex += 1;\n            }\n        }\n\n        return items;\n    }\n\n    function mintToken(string memory tokenURI, uint256 price)\n        public\n        payable\n        returns (uint256)\n    {\n        require(!tokenURIExists(tokenURI), \"Token URI already exists\");\n        require(\n            msg.value == listingPrice,\n            \"Price must be equal to listing price\"\n        );\n        _tokenIds.increment();\n        _listedItems.increment();\n\n        uint256 newTokenId = _tokenIds.current();\n\n        _safeMint(msg.sender, newTokenId);\n        _setTokenURI(newTokenId, tokenURI);\n        _createNftItem(newTokenId, price);\n        _usedTokenURIs[tokenURI] = true;\n\n        return newTokenId;\n    }\n\n    function buyNft(uint256 tokenId) public payable {\n        uint256 price = _idToNftItem[tokenId].price;\n        address owner = ERC721.ownerOf(tokenId);\n        require(msg.sender != owner, \"You already own this nft\");\n        require(msg.value == price, \"Please submit the asking price\");\n        require(\n            _idToNftItem[tokenId].isListed == true,\n            \"Token you are trying to buy is not listed for sale.\"\n        );\n\n        _idToNftItem[tokenId].isListed = false;\n        _listedItems.decrement();\n\n        ERC721._transfer(owner, msg.sender, tokenId);\n        payable(owner).transfer(msg.value);\n    }\n\n    function placeNftOnSale(uint256 tokenId, uint256 newPrice) public payable {\n        require(\n            ERC721.ownerOf(tokenId) == msg.sender,\n            \"You are not the owner of this NFT\"\n        );\n        require(\n            _idToNftItem[tokenId].isListed == false,\n            \"Item is already listed\"\n        );\n        require(\n            msg.value == listingPrice,\n            \"Price must be equal to listing price\"\n        );\n\n        _idToNftItem[tokenId].isListed = true;\n        _listedItems.increment();\n\n        _idToNftItem[tokenId].price = newPrice;\n    }\n\n    function _createNftItem(uint256 tokenId, uint256 price) private {\n        require(price > 0, \"Price must be at least 1 wei\");\n        _idToNftItem[tokenId] = NftItem(tokenId, price, msg.sender, true);\n\n        emit NftItemCreated(tokenId, price, msg.sender, true);\n    }\n\n    function _beforeTokenTransfer(\n        address from,\n        address to,\n        uint256 tokenId\n    ) internal virtual override {\n        super._beforeTokenTransfer(from, to, tokenId);\n\n        // Minting token\n        if (from == address(0)) {\n            _addToklenToAllTokensEnumeration(tokenId);\n        } else if (from != to) {\n            _removeTokenFromOwnerEnumeration(from, tokenId);\n        }\n\n        if (to == address(0)) {\n            _removeTokenFromAllTokensEnumeration(tokenId);\n        } else if (to != from) {\n            _addToklenToOwnerEnumeration(to, tokenId);\n        }\n    }\n\n    function _addToklenToAllTokensEnumeration(uint256 tokenId) private {\n        _idToNftIndex[tokenId] = _allNfts.length;\n        _allNfts.push(tokenId);\n    }\n\n    function _addToklenToOwnerEnumeration(address to, uint256 tokenId) private {\n        uint256 length = ERC721.balanceOf(to);\n        _ownedTokens[to][length] = tokenId;\n        _idToOwnedIndex[tokenId] = length;\n    }\n\n    function _removeTokenFromOwnerEnumeration(address from, uint256 tokenId)\n        private\n    {\n        uint256 lastTokenIndex = ERC721.balanceOf(from) - 1;\n        uint256 tokenIndex = _idToOwnedIndex[tokenId];\n\n        if (tokenIndex != lastTokenIndex) {\n            uint256 lastTokenId = _ownedTokens[from][lastTokenIndex];\n\n            _ownedTokens[from][tokenIndex] = lastTokenId;\n            _idToOwnedIndex[lastTokenId] = tokenIndex;\n        }\n\n        delete _idToOwnedIndex[tokenId];\n        delete _ownedTokens[from][lastTokenIndex];\n    }\n\n    function _removeTokenFromAllTokensEnumeration(uint256 tokenId) private {\n        uint256 lastTokenIndex = _allNfts.length - 1;\n        uint256 tokenIndex = _idToNftIndex[tokenId];\n        uint256 lastTokenId = _allNfts[lastTokenIndex];\n\n        _allNfts[tokenIndex] = lastTokenId;\n        _idToNftIndex[lastTokenId] = tokenIndex;\n\n        delete _idToNftIndex[tokenId];\n        _allNfts.pop();\n    }\n}\n",
  "sourcePath": "/Users/felipe.deAlva/code/chainblocks/nft-marketplace/contracts/NftMarket.sol",
  "compiler": {
    "name": "solc",
    "version": "0.8.14+commit.80d49f37.Emscripten.clang"
  },
  "schemaVersion": "3.4.7",
  "updatedAt": "2022-06-28T11:46:02.134Z",
  "networkType": "ethereum",
  "devdoc": {
    "kind": "dev",
    "methods": {
      "approve(address,uint256)": {
        "details": "See {IERC721-approve}."
      },
      "balanceOf(address)": {
        "details": "See {IERC721-balanceOf}."
      },
      "getApproved(uint256)": {
        "details": "See {IERC721-getApproved}."
      },
      "isApprovedForAll(address,address)": {
        "details": "See {IERC721-isApprovedForAll}."
      },
      "name()": {
        "details": "See {IERC721Metadata-name}."
      },
      "owner()": {
        "details": "Returns the address of the current owner."
      },
      "ownerOf(uint256)": {
        "details": "See {IERC721-ownerOf}."
      },
      "renounceOwnership()": {
        "details": "Leaves the contract without owner. It will not be possible to call `onlyOwner` functions anymore. Can only be called by the current owner. NOTE: Renouncing ownership will leave the contract without an owner, thereby removing any functionality that is only available to the owner."
      },
      "safeTransferFrom(address,address,uint256)": {
        "details": "See {IERC721-safeTransferFrom}."
      },
      "safeTransferFrom(address,address,uint256,bytes)": {
        "details": "See {IERC721-safeTransferFrom}."
      },
      "setApprovalForAll(address,bool)": {
        "details": "See {IERC721-setApprovalForAll}."
      },
      "supportsInterface(bytes4)": {
        "details": "See {IERC165-supportsInterface}."
      },
      "symbol()": {
        "details": "See {IERC721Metadata-symbol}."
      },
      "tokenURI(uint256)": {
        "details": "See {IERC721Metadata-tokenURI}."
      },
      "transferFrom(address,address,uint256)": {
        "details": "See {IERC721-transferFrom}."
      },
      "transferOwnership(address)": {
        "details": "Transfers ownership of the contract to a new account (`newOwner`). Can only be called by the current owner."
      }
    },
    "version": 1
  },
  "userdoc": {
    "kind": "user",
    "methods": {},
    "version": 1
  }
}